{
  "contractName": "Election",
  "abi": [
    {
      "inputs": [],
      "payable": false,
      "stateMutability": "nonpayable",
      "type": "constructor"
    },
    {
      "anonymous": false,
      "inputs": [
        {
          "indexed": true,
          "internalType": "uint256",
          "name": "_candidateId",
          "type": "uint256"
        }
      ],
      "name": "votedEvent",
      "type": "event"
    },
    {
      "constant": true,
      "inputs": [
        {
          "internalType": "uint256",
          "name": "",
          "type": "uint256"
        }
      ],
      "name": "candidates",
      "outputs": [
        {
          "internalType": "uint256",
          "name": "id",
          "type": "uint256"
        },
        {
          "internalType": "string",
          "name": "name",
          "type": "string"
        },
        {
          "internalType": "string",
          "name": "avatar",
          "type": "string"
        },
        {
          "internalType": "uint256",
          "name": "voteCount",
          "type": "uint256"
        }
      ],
      "payable": false,
      "stateMutability": "view",
      "type": "function"
    },
    {
      "constant": true,
      "inputs": [],
      "name": "candidatesCount",
      "outputs": [
        {
          "internalType": "uint256",
          "name": "",
          "type": "uint256"
        }
      ],
      "payable": false,
      "stateMutability": "view",
      "type": "function"
    },
    {
      "constant": true,
      "inputs": [],
      "name": "totalVotes",
      "outputs": [
        {
          "internalType": "uint256",
          "name": "",
          "type": "uint256"
        }
      ],
      "payable": false,
      "stateMutability": "view",
      "type": "function"
    },
    {
      "constant": true,
      "inputs": [
        {
          "internalType": "address",
          "name": "",
          "type": "address"
        }
      ],
      "name": "voters",
      "outputs": [
        {
          "internalType": "bool",
          "name": "",
          "type": "bool"
        }
      ],
      "payable": false,
      "stateMutability": "view",
      "type": "function"
    },
    {
      "constant": false,
      "inputs": [
        {
          "internalType": "uint256",
          "name": "_candidateId",
          "type": "uint256"
        }
      ],
      "name": "vote",
      "outputs": [],
      "payable": false,
      "stateMutability": "nonpayable",
      "type": "function"
    }
  ],
  "bytecode": "0x608060405234801561001057600080fd5b5061008b6040518060400160405280600b81526020017f436f6e64696461746520310000000000000000000000000000000000000000008152506040518060400160405280600481526020017f75726c310000000000000000000000000000000000000000000000000000000081525061020660201b60201c565b6101056040518060400160405280600b81526020017f436f6e64696461746520320000000000000000000000000000000000000000008152506040518060400160405280600481526020017f75726c320000000000000000000000000000000000000000000000000000000081525061020660201b60201c565b61017f6040518060400160405280600b81526020017f436f6e64696461746520330000000000000000000000000000000000000000008152506040518060400160405280600481526020017f75726c330000000000000000000000000000000000000000000000000000000081525061020660201b60201c565b6101f96040518060400160405280600b81526020017f436f6e64696461746520340000000000000000000000000000000000000000008152506040518060400160405280600481526020017f75726c340000000000000000000000000000000000000000000000000000000081525061020660201b60201c565b600060038190555061034a565b60026000815480929190600101919050555060405180608001604052806002548152602001838152602001828152602001600081525060008060025481526020019081526020016000206000820151816000015560208201518160010190805190602001906102769291906102a5565b5060408201518160020190805190602001906102939291906102a5565b50606082015181600301559050505050565b828054600181600116156101000203166002900490600052602060002090601f016020900481019282601f106102e657805160ff1916838001178555610314565b82800160010185558215610314579182015b828111156103135782518255916020019190600101906102f8565b5b5090506103219190610325565b5090565b61034791905b8082111561034357600081600090555060010161032b565b5090565b90565b610534806103596000396000f3fe608060405234801561001057600080fd5b50600436106100575760003560e01c80630121b93f1461005c5780630d15fd771461008a5780632d35a8a2146100a85780633477ee2e146100c6578063a3ec138d146101e7575b600080fd5b6100886004803603602081101561007257600080fd5b8101908080359060200190929190505050610243565b005b610092610373565b6040518082815260200191505060405180910390f35b6100b0610379565b6040518082815260200191505060405180910390f35b6100f2600480360360208110156100dc57600080fd5b810190808035906020019092919050505061037f565b604051808581526020018060200180602001848152602001838103835286818151815260200191508051906020019080838360005b83811015610142578082015181840152602081019050610127565b50505050905090810190601f16801561016f5780820380516001836020036101000a031916815260200191505b50838103825285818151815260200191508051906020019080838360005b838110156101a857808201518184015260208101905061018d565b50505050905090810190601f1680156101d55780820380516001836020036101000a031916815260200191505b50965050505050505060405180910390f35b610229600480360360208110156101fd57600080fd5b81019080803573ffffffffffffffffffffffffffffffffffffffff1690602001909291905050506104df565b604051808215151515815260200191505060405180910390f35b600160003373ffffffffffffffffffffffffffffffffffffffff1673ffffffffffffffffffffffffffffffffffffffff16815260200190815260200160002060009054906101000a900460ff161561029a57600080fd5b6000811180156102ac57506002548111155b6102b557600080fd5b60018060003373ffffffffffffffffffffffffffffffffffffffff1673ffffffffffffffffffffffffffffffffffffffff16815260200190815260200160002060006101000a81548160ff02191690831515021790555060008082815260200190815260200160002060030160008154809291906001019190505550600360008154809291906001019190505550807ffff3c900d938d21d0990d786e819f29b8d05c1ef587b462b939609625b684b1660405160405180910390a250565b60035481565b60025481565b6000602052806000526040600020600091509050806000015490806001018054600181600116156101000203166002900480601f0160208091040260200160405190810160405280929190818152602001828054600181600116156101000203166002900480156104315780601f1061040657610100808354040283529160200191610431565b820191906000526020600020905b81548152906001019060200180831161041457829003601f168201915b505050505090806002018054600181600116156101000203166002900480601f0160208091040260200160405190810160405280929190818152602001828054600181600116156101000203166002900480156104cf5780601f106104a4576101008083540402835291602001916104cf565b820191906000526020600020905b8154815290600101906020018083116104b257829003601f168201915b5050505050908060030154905084565b60016020528060005260406000206000915054906101000a900460ff168156fea265627a7a723158200fe1132d277a61d099a4540c3eb72ac143d3109769db538ee14df60cd5d97e6664736f6c63430005100032",
  "source": "pragma solidity ^0.5.0;\r\n\r\ncontract Election{\r\n \r\n    struct Candidate {\r\n        uint id;\r\n        string name;\r\n        string avatar;\r\n        uint voteCount;\r\n    }\r\n  mapping(uint => Candidate) public candidates;\r\n  mapping( address => bool) public voters;\r\n  uint public candidatesCount;\r\n  uint public totalVotes;\r\n \r\n\r\n event votedEvent (\r\n        uint indexed _candidateId\r\n    );\r\n\r\n   constructor() public{\r\n     addCandidate(\"Condidate 1\",\"url1\");\r\n     addCandidate(\"Condidate 2\",\"url2\");\r\n     addCandidate(\"Condidate 3\",\"url3\");\r\n     addCandidate(\"Condidate 4\",\"url4\");\r\n     totalVotes=0;\r\n\r\n }\r\n\r\n\r\n    function addCandidate (string memory _name, string memory _url) private {\r\n        candidatesCount ++;\r\n        candidates[candidatesCount] = Candidate(candidatesCount, _name, _url, 0);\r\n    }\r\n\r\n    function vote (uint _candidateId) public {\r\n        // require that they haven't voted before\r\n        require(!voters[msg.sender]);\r\n        // require a valid candidate\r\n        require(_candidateId > 0 && _candidateId <= candidatesCount);\r\n        // record that voter has voted\r\n        voters[msg.sender] = true;\r\n        // update candidate vote Count\r\n        candidates[_candidateId].voteCount ++;\r\n\r\n        totalVotes++;\r\n\r\n        \r\n        emit votedEvent(_candidateId);\r\n    }\r\n\r\n}",
  "sourcePath": "H:/WORK/Faculté/ingénierie/CII-DMWM-A/CII3-DMWM-A/Blockchain/contracts/Election.sol",
  "compiler": {
    "name": "solc",
    "version": "0.5.16+commit.9c3226ce.Emscripten.clang"
  },
  "schemaVersion": "3.3.2",
  "updatedAt": "2020-11-09T22:30:31.267Z",
  "networkType": "ethereum",
  "devdoc": {
    "methods": {}
  },
  "userdoc": {
    "methods": {}
  }
}